:0E0000001AC0FECFFDCF45C1FBCFFACFF9CF1E
:10000E00F8CF6AC1F6CF000000000000000001002A
:10001E002D4E414E00494E460000080004001400CB
:10002E00010070001C000000F894EE27ECBBE5BF49
:10003E00F8E1A4B7A77FA4BFF1BDE1BD8DE0A2E0BA
:10004E00ED938A95E9F780E4A0E6ED938A95E9F7BA
:10005E00E8E2F0E0C8953196802DC8953196902D46
:10006E000097B9F0C8953196A02DC8953196B02D50
:10007E00C8953196102CC89531966E2F7F2FF02D86
:10008E00E12DC89531960D920197D9F7E62FF72FEE
:10009E00E1CFEFE9EDBFC0E700C000E09DD0C09A10
:1000AE00C19AC29AE8E8F3E134D150D1E0E0F7E624
:1000BE00E815F90510F0003019F48824992454D06D
:1000CE0063D0E03009F43FC027D1E80DF91D21D1EE
:1000DE0004D1EB2D24D1309731F4E1E0BE2EEA931A
:1000EE00ECE01FD12FC0E130A0E0FA0721F4FBD0E5
:1000FE00E370EE5F26C0E230A0E0FA0721F0E330B5
:10010E00A0E0FA0751F410E0183030F4E1E0EA9381
:10011E00E3E007D11F5FF8CF13C0E430A0E0FA0789
:10012E0021F0E530A0E0FA0769F4E0E0EA93E5E0BB
:10013E00F8D0E4E6F0E0F7D0E1E0EA93E5E0F1D0C4
:10014E00E1E0BE2E0FC0BB2011F40F5F07C0E0E050
:10015E00EA93EFE0E6D088249924BB24E1B5E0646D
:10016E00E1BD8895A3CFFFCF29D1AA2411E01B3082
:10017E0050F425D00E2FA01608F4A02EE2E3F0E0E6
:10018E00D2D01F5FF4CF19C019D100E011E01B309F
:10019E0098F415D0AE2FBF2FEA2DC1D03F96EA1797
:1001AE00FB0710F40F5F03C0013008F00150EAE0C6
:1001BE00F0E0B9D01F5FEBCFE02F07D108950A937F
:1001CE00F894C39AE0E0E2BFB49BFECF02B77894F6
:1001DE00C398A2D009910895E0E8E6BDE0E0E6BD3F
:1001EE00E5E1E1BDE5B7E063E5BFE0E8E8B9E1E0F0
:1001FE00E5BDE3BFE2E0E9BFBB9AB89ABA9AB99AF5
:10020E000895DBD000E010E020E0EC81E030C1F09A
:10021E006AD0E370EC8383D0309719F464D00E2F3C
:10022E000FC0E130A0E0FA0719F45DD02E2F08C000
:10023E00E230A0E0FA0719F456D01E2F01C0E8CF25
:10024E00051521F4261511F41715C9F0501629F0CD
:10025E00501610F4539401C05A94621629F0621687
:10026E0010F4639401C06A94711629F0711610F49B
:10027E00739401C07A94EB8152D055D0E1CFA1D0C6
:10028E0025960895AA93BA93EA93FA93EFB7EA9351
:10029E00E52D4BD011F4C09801C0C09AE62D45D083
:1002AE0011F4C19801C0C19AE72D3FD011F4C29844
:1002BE0001C0C29A4394E0E0EB1511F0E41509F089
:1002CE0004C0E1E0F0E08E0E9F1EE991EFBFF991C0
:1002DE00E991B991A99118951895E881F98142D0C3
:1002EE002CD022960895E0917000F09171006091EB
:1002FE00720070917300ADE6BEE486EC91E43DD0E1
:10030E00EE59F8486F4F7F4F18D0E62FF72FFF7733
:10031E000895FA93EA930895E02FF0E00895F0E03F
:10032E000895EA936ECFF5DF11C0F9DFEE0FFF1FD0
:10033E00A42DB0E01CD0E0300895E0937000F0934F
:10034E00710060937200709373000895E991F991B2
:10035E00309639F080E699E00197F1F7A89531973C
:10036E00C9F708956F2F660F660B762F0895AE1797
:10037E00BF07E1E00CF4EE2708953F934F935F9390
:10038E0051E20A2E1B2E382F492FAA27BB2788276A
:10039E00991B09C020F4A00DB11D831F941F9695C3
:1003AE008795B795A79577956795F795E7955A959C
:1003BE0089F75F914F913F9108952A931A930A936B
:1003CE0008952A8119810881089509911991089536
:00000001FF
